{
  "contractName": "BEP20",
  "abi": [
    {
      "inputs": [
        {
          "internalType": "string",
          "name": "name_",
          "type": "string"
        },
        {
          "internalType": "string",
          "name": "symbol_",
          "type": "string"
        }
      ],
      "stateMutability": "nonpayable",
      "type": "constructor"
    },
    {
      "anonymous": false,
      "inputs": [
        {
          "indexed": true,
          "internalType": "address",
          "name": "owner",
          "type": "address"
        },
        {
          "indexed": true,
          "internalType": "address",
          "name": "spender",
          "type": "address"
        },
        {
          "indexed": false,
          "internalType": "uint256",
          "name": "value",
          "type": "uint256"
        }
      ],
      "name": "Approval",
      "type": "event"
    },
    {
      "anonymous": false,
      "inputs": [
        {
          "indexed": true,
          "internalType": "address",
          "name": "previousOwner",
          "type": "address"
        },
        {
          "indexed": true,
          "internalType": "address",
          "name": "newOwner",
          "type": "address"
        }
      ],
      "name": "OwnershipTransferred",
      "type": "event"
    },
    {
      "anonymous": false,
      "inputs": [
        {
          "indexed": true,
          "internalType": "address",
          "name": "from",
          "type": "address"
        },
        {
          "indexed": true,
          "internalType": "address",
          "name": "to",
          "type": "address"
        },
        {
          "indexed": false,
          "internalType": "uint256",
          "name": "value",
          "type": "uint256"
        }
      ],
      "name": "Transfer",
      "type": "event"
    },
    {
      "inputs": [],
      "name": "owner",
      "outputs": [
        {
          "internalType": "address",
          "name": "",
          "type": "address"
        }
      ],
      "stateMutability": "view",
      "type": "function"
    },
    {
      "inputs": [],
      "name": "renounceOwnership",
      "outputs": [],
      "stateMutability": "nonpayable",
      "type": "function"
    },
    {
      "inputs": [
        {
          "internalType": "address",
          "name": "newOwner",
          "type": "address"
        }
      ],
      "name": "transferOwnership",
      "outputs": [],
      "stateMutability": "nonpayable",
      "type": "function"
    },
    {
      "inputs": [],
      "name": "getOwner",
      "outputs": [
        {
          "internalType": "address",
          "name": "",
          "type": "address"
        }
      ],
      "stateMutability": "view",
      "type": "function"
    },
    {
      "inputs": [],
      "name": "decimals",
      "outputs": [
        {
          "internalType": "uint8",
          "name": "",
          "type": "uint8"
        }
      ],
      "stateMutability": "view",
      "type": "function"
    },
    {
      "inputs": [],
      "name": "symbol",
      "outputs": [
        {
          "internalType": "string",
          "name": "",
          "type": "string"
        }
      ],
      "stateMutability": "view",
      "type": "function"
    },
    {
      "inputs": [],
      "name": "name",
      "outputs": [
        {
          "internalType": "string",
          "name": "",
          "type": "string"
        }
      ],
      "stateMutability": "view",
      "type": "function"
    },
    {
      "inputs": [],
      "name": "totalSupply",
      "outputs": [
        {
          "internalType": "uint256",
          "name": "",
          "type": "uint256"
        }
      ],
      "stateMutability": "view",
      "type": "function"
    },
    {
      "inputs": [
        {
          "internalType": "address",
          "name": "account",
          "type": "address"
        }
      ],
      "name": "balanceOf",
      "outputs": [
        {
          "internalType": "uint256",
          "name": "",
          "type": "uint256"
        }
      ],
      "stateMutability": "view",
      "type": "function"
    },
    {
      "inputs": [
        {
          "internalType": "address",
          "name": "recipient",
          "type": "address"
        },
        {
          "internalType": "uint256",
          "name": "amount",
          "type": "uint256"
        }
      ],
      "name": "transfer",
      "outputs": [
        {
          "internalType": "bool",
          "name": "",
          "type": "bool"
        }
      ],
      "stateMutability": "nonpayable",
      "type": "function"
    },
    {
      "inputs": [
        {
          "internalType": "address",
          "name": "owner",
          "type": "address"
        },
        {
          "internalType": "address",
          "name": "spender",
          "type": "address"
        }
      ],
      "name": "allowance",
      "outputs": [
        {
          "internalType": "uint256",
          "name": "",
          "type": "uint256"
        }
      ],
      "stateMutability": "view",
      "type": "function"
    },
    {
      "inputs": [
        {
          "internalType": "address",
          "name": "spender",
          "type": "address"
        },
        {
          "internalType": "uint256",
          "name": "amount",
          "type": "uint256"
        }
      ],
      "name": "approve",
      "outputs": [
        {
          "internalType": "bool",
          "name": "",
          "type": "bool"
        }
      ],
      "stateMutability": "nonpayable",
      "type": "function"
    },
    {
      "inputs": [
        {
          "internalType": "address",
          "name": "from",
          "type": "address"
        },
        {
          "internalType": "address",
          "name": "to",
          "type": "address"
        },
        {
          "internalType": "uint256",
          "name": "amount",
          "type": "uint256"
        }
      ],
      "name": "transferFrom",
      "outputs": [
        {
          "internalType": "bool",
          "name": "",
          "type": "bool"
        }
      ],
      "stateMutability": "nonpayable",
      "type": "function"
    },
    {
      "inputs": [
        {
          "internalType": "address",
          "name": "spender",
          "type": "address"
        },
        {
          "internalType": "uint256",
          "name": "addedValue",
          "type": "uint256"
        }
      ],
      "name": "increaseAllowance",
      "outputs": [
        {
          "internalType": "bool",
          "name": "",
          "type": "bool"
        }
      ],
      "stateMutability": "nonpayable",
      "type": "function"
    },
    {
      "inputs": [
        {
          "internalType": "address",
          "name": "spender",
          "type": "address"
        },
        {
          "internalType": "uint256",
          "name": "subtractedValue",
          "type": "uint256"
        }
      ],
      "name": "decreaseAllowance",
      "outputs": [
        {
          "internalType": "bool",
          "name": "",
          "type": "bool"
        }
      ],
      "stateMutability": "nonpayable",
      "type": "function"
    },
    {
      "inputs": [
        {
          "internalType": "address",
          "name": "account",
          "type": "address"
        },
        {
          "internalType": "uint256",
          "name": "amount",
          "type": "uint256"
        }
      ],
      "name": "mint",
      "outputs": [
        {
          "internalType": "bool",
          "name": "",
          "type": "bool"
        }
      ],
      "stateMutability": "nonpayable",
      "type": "function"
    },
    {
      "inputs": [
        {
          "internalType": "uint256",
          "name": "amount",
          "type": "uint256"
        }
      ],
      "name": "burn",
      "outputs": [
        {
          "internalType": "bool",
          "name": "",
          "type": "bool"
        }
      ],
      "stateMutability": "nonpayable",
      "type": "function"
    },
    {
      "inputs": [
        {
          "internalType": "address",
          "name": "account",
          "type": "address"
        },
        {
          "internalType": "uint256",
          "name": "amount",
          "type": "uint256"
        }
      ],
      "name": "burnFrom",
      "outputs": [
        {
          "internalType": "bool",
          "name": "",
          "type": "bool"
        }
      ],
      "stateMutability": "nonpayable",
      "type": "function"
    }
  ],
  "bytecode": "0x60806040523480156200001157600080fd5b50604051620025dc380380620025dc8339818101604052810190620000379190620002ae565b6000620000496200011360201b60201c565b9050806000806101000a81548173ffffffffffffffffffffffffffffffffffffffff021916908373ffffffffffffffffffffffffffffffffffffffff1602179055508073ffffffffffffffffffffffffffffffffffffffff16600073ffffffffffffffffffffffffffffffffffffffff167f8be0079c531659141344cd1fd0a4f28419497f9722a3daafe3b4186f6b6457e060405160405180910390a3508160049081620000f891906200057e565b5080600590816200010a91906200057e565b50505062000665565b600033905090565b6000604051905090565b600080fd5b600080fd5b600080fd5b600080fd5b6000601f19601f8301169050919050565b7f4e487b7100000000000000000000000000000000000000000000000000000000600052604160045260246000fd5b620001848262000139565b810181811067ffffffffffffffff82111715620001a657620001a56200014a565b5b80604052505050565b6000620001bb6200011b565b9050620001c9828262000179565b919050565b600067ffffffffffffffff821115620001ec57620001eb6200014a565b5b620001f78262000139565b9050602081019050919050565b60005b838110156200022457808201518184015260208101905062000207565b60008484015250505050565b6000620002476200024184620001ce565b620001af565b90508281526020810184848401111562000266576200026562000134565b5b6200027384828562000204565b509392505050565b600082601f8301126200029357620002926200012f565b5b8151620002a584826020860162000230565b91505092915050565b60008060408385031215620002c857620002c762000125565b5b600083015167ffffffffffffffff811115620002e957620002e86200012a565b5b620002f7858286016200027b565b925050602083015167ffffffffffffffff8111156200031b576200031a6200012a565b5b62000329858286016200027b565b9150509250929050565b600081519050919050565b7f4e487b7100000000000000000000000000000000000000000000000000000000600052602260045260246000fd5b600060028204905060018216806200038657607f821691505b6020821081036200039c576200039b6200033e565b5b50919050565b60008190508160005260206000209050919050565b60006020601f8301049050919050565b600082821b905092915050565b600060088302620004067fffffffffffffffffffffffffffffffffffffffffffffffffffffffffffffffff82620003c7565b620004128683620003c7565b95508019841693508086168417925050509392505050565b6000819050919050565b6000819050919050565b60006200045f6200045962000453846200042a565b62000434565b6200042a565b9050919050565b6000819050919050565b6200047b836200043e565b620004936200048a8262000466565b848454620003d4565b825550505050565b600090565b620004aa6200049b565b620004b781848462000470565b505050565b5b81811015620004df57620004d3600082620004a0565b600181019050620004bd565b5050565b601f8211156200052e57620004f881620003a2565b6200050384620003b7565b8101602085101562000513578190505b6200052b6200052285620003b7565b830182620004bc565b50505b505050565b600082821c905092915050565b6000620005536000198460080262000533565b1980831691505092915050565b60006200056e838362000540565b9150826002028217905092915050565b620005898262000333565b67ffffffffffffffff811115620005a557620005a46200014a565b5b620005b182546200036d565b620005be828285620004e3565b600060209050601f831160018114620005f65760008415620005e1578287015190505b620005ed858262000560565b8655506200065d565b601f1984166200060686620003a2565b60005b82811015620006305784890151825560018201915060208501945060208101905062000609565b868310156200065057848901516200064c601f89168262000540565b8355505b6001600288020188555050505b505050505050565b611f6780620006756000396000f3fe608060405234801561001057600080fd5b50600436106101165760003560e01c8063715018a6116100a257806395d89b411161007157806395d89b411461030b578063a457c2d714610329578063a9059cbb14610359578063dd62ed3e14610389578063f2fde38b146103b957610116565b8063715018a61461029557806379cc67901461029f578063893d20e8146102cf5780638da5cb5b146102ed57610116565b8063313ce567116100e9578063313ce567146101b757806339509351146101d557806340c10f191461020557806342966c681461023557806370a082311461026557610116565b806306fdde031461011b578063095ea7b31461013957806318160ddd1461016957806323b872dd14610187575b600080fd5b6101236103d5565b604051610130919061155f565b60405180910390f35b610153600480360381019061014e919061161a565b610467565b6040516101609190611675565b60405180910390f35b610171610485565b60405161017e919061169f565b60405180910390f35b6101a1600480360381019061019c91906116ba565b61048f565b6040516101ae9190611675565b60405180910390f35b6101bf6104be565b6040516101cc9190611729565b60405180910390f35b6101ef60048036038101906101ea919061161a565b6104c7565b6040516101fc9190611675565b60405180910390f35b61021f600480360381019061021a919061161a565b610573565b60405161022c9190611675565b60405180910390f35b61024f600480360381019061024a9190611744565b61061e565b60405161025c9190611675565b60405180910390f35b61027f600480360381019061027a9190611771565b6106cf565b60405161028c919061169f565b60405180910390f35b61029d610718565b005b6102b960048036038101906102b4919061161a565b61086b565b6040516102c69190611675565b60405180910390f35b6102d7610916565b6040516102e491906117ad565b60405180910390f35b6102f5610925565b60405161030291906117ad565b60405180910390f35b61031361094e565b604051610320919061155f565b60405180910390f35b610343600480360381019061033e919061161a565b6109e0565b6040516103509190611675565b60405180910390f35b610373600480360381019061036e919061161a565b610a57565b6040516103809190611675565b60405180910390f35b6103a3600480360381019061039e91906117c8565b610a75565b6040516103b0919061169f565b60405180910390f35b6103d360048036038101906103ce9190611771565b610afc565b005b6060600480546103e490611837565b80601f016020809104026020016040519081016040528092919081815260200182805461041090611837565b801561045d5780601f106104325761010080835404028352916020019161045d565b820191906000526020600020905b81548152906001019060200180831161044057829003601f168201915b5050505050905090565b600061047b610474610b9d565b8484610ba5565b6001905092915050565b6000600354905090565b60008061049a610b9d565b90506104a7858285610d6e565b6104b2858585610dfa565b60019150509392505050565b60006012905090565b60006105696104d4610b9d565b8484600260006104e2610b9d565b73ffffffffffffffffffffffffffffffffffffffff1673ffffffffffffffffffffffffffffffffffffffff16815260200190815260200160002060008873ffffffffffffffffffffffffffffffffffffffff1673ffffffffffffffffffffffffffffffffffffffff168152602001908152602001600020546105649190611897565b610ba5565b6001905092915050565b600061057d610b9d565b73ffffffffffffffffffffffffffffffffffffffff1660008054906101000a900473ffffffffffffffffffffffffffffffffffffffff1673ffffffffffffffffffffffffffffffffffffffff161461060a576040517f08c379a000000000000000000000000000000000000000000000000000000000815260040161060190611917565b60405180910390fd5b6106148383611073565b6001905092915050565b6000610628610b9d565b73ffffffffffffffffffffffffffffffffffffffff1660008054906101000a900473ffffffffffffffffffffffffffffffffffffffff1673ffffffffffffffffffffffffffffffffffffffff16146106b5576040517f08c379a00000000000000000000000000000000000000000000000000000000081526004016106ac90611917565b60405180910390fd5b6106c66106c0610b9d565b836111ca565b60019050919050565b6000600160008373ffffffffffffffffffffffffffffffffffffffff1673ffffffffffffffffffffffffffffffffffffffff168152602001908152602001600020549050919050565b610720610b9d565b73ffffffffffffffffffffffffffffffffffffffff1660008054906101000a900473ffffffffffffffffffffffffffffffffffffffff1673ffffffffffffffffffffffffffffffffffffffff16146107ad576040517f08c379a00000000000000000000000000000000000000000000000000000000081526004016107a490611917565b60405180910390fd5b600073ffffffffffffffffffffffffffffffffffffffff1660008054906101000a900473ffffffffffffffffffffffffffffffffffffffff1673ffffffffffffffffffffffffffffffffffffffff167f8be0079c531659141344cd1fd0a4f28419497f9722a3daafe3b4186f6b6457e060405160405180910390a360008060006101000a81548173ffffffffffffffffffffffffffffffffffffffff021916908373ffffffffffffffffffffffffffffffffffffffff160217905550565b6000610875610b9d565b73ffffffffffffffffffffffffffffffffffffffff1660008054906101000a900473ffffffffffffffffffffffffffffffffffffffff1673ffffffffffffffffffffffffffffffffffffffff1614610902576040517f08c379a00000000000000000000000000000000000000000000000000000000081526004016108f990611917565b60405180910390fd5b61090c83836111ca565b6001905092915050565b6000610920610925565b905090565b60008060009054906101000a900473ffffffffffffffffffffffffffffffffffffffff16905090565b60606005805461095d90611837565b80601f016020809104026020016040519081016040528092919081815260200182805461098990611837565b80156109d65780601f106109ab576101008083540402835291602001916109d6565b820191906000526020600020905b8154815290600101906020018083116109b957829003601f168201915b5050505050905090565b6000806109eb610b9d565b905060006109f98286610a75565b905083811015610a3e576040517f08c379a0000000000000000000000000000000000000000000000000000000008152600401610a35906119a9565b60405180910390fd5b610a4b8286868403610ba5565b60019250505092915050565b6000610a6b610a64610b9d565b8484610dfa565b6001905092915050565b6000600260008473ffffffffffffffffffffffffffffffffffffffff1673ffffffffffffffffffffffffffffffffffffffff16815260200190815260200160002060008373ffffffffffffffffffffffffffffffffffffffff1673ffffffffffffffffffffffffffffffffffffffff16815260200190815260200160002054905092915050565b610b04610b9d565b73ffffffffffffffffffffffffffffffffffffffff1660008054906101000a900473ffffffffffffffffffffffffffffffffffffffff1673ffffffffffffffffffffffffffffffffffffffff1614610b91576040517f08c379a0000000000000000000000000000000000000000000000000000000008152600401610b8890611917565b60405180910390fd5b610b9a81611399565b50565b600033905090565b600073ffffffffffffffffffffffffffffffffffffffff168373ffffffffffffffffffffffffffffffffffffffff1603610c14576040517f08c379a0000000000000000000000000000000000000000000000000000000008152600401610c0b90611a3b565b60405180910390fd5b600073ffffffffffffffffffffffffffffffffffffffff168273ffffffffffffffffffffffffffffffffffffffff1603610c83576040517f08c379a0000000000000000000000000000000000000000000000000000000008152600401610c7a90611acd565b60405180910390fd5b80600260008573ffffffffffffffffffffffffffffffffffffffff1673ffffffffffffffffffffffffffffffffffffffff16815260200190815260200160002060008473ffffffffffffffffffffffffffffffffffffffff1673ffffffffffffffffffffffffffffffffffffffff168152602001908152602001600020819055508173ffffffffffffffffffffffffffffffffffffffff168373ffffffffffffffffffffffffffffffffffffffff167f8c5be1e5ebec7d5bd14f71427d1e84f3dd0314c0f7b2291e5b200ac8c7c3b92583604051610d61919061169f565b60405180910390a3505050565b6000610d7a8484610a75565b90507fffffffffffffffffffffffffffffffffffffffffffffffffffffffffffffffff8114610df45781811015610de6576040517f08c379a0000000000000000000000000000000000000000000000000000000008152600401610ddd90611b39565b60405180910390fd5b610df38484848403610ba5565b5b50505050565b600073ffffffffffffffffffffffffffffffffffffffff168373ffffffffffffffffffffffffffffffffffffffff1603610e69576040517f08c379a0000000000000000000000000000000000000000000000000000000008152600401610e6090611bcb565b60405180910390fd5b600073ffffffffffffffffffffffffffffffffffffffff168273ffffffffffffffffffffffffffffffffffffffff1603610ed8576040517f08c379a0000000000000000000000000000000000000000000000000000000008152600401610ecf90611c5d565b60405180910390fd5b610ee38383836114c5565b6000600160008573ffffffffffffffffffffffffffffffffffffffff1673ffffffffffffffffffffffffffffffffffffffff16815260200190815260200160002054905081811015610f6a576040517f08c379a0000000000000000000000000000000000000000000000000000000008152600401610f6190611cef565b60405180910390fd5b818103600160008673ffffffffffffffffffffffffffffffffffffffff1673ffffffffffffffffffffffffffffffffffffffff1681526020019081526020016000208190555081600160008573ffffffffffffffffffffffffffffffffffffffff1673ffffffffffffffffffffffffffffffffffffffff168152602001908152602001600020600082825401925050819055506110088484846114ca565b8273ffffffffffffffffffffffffffffffffffffffff168473ffffffffffffffffffffffffffffffffffffffff167fddf252ad1be2c89b69c2b068fc378daa952ba7f163c4a11628f55a4df523b3ef84604051611065919061169f565b60405180910390a350505050565b600073ffffffffffffffffffffffffffffffffffffffff168273ffffffffffffffffffffffffffffffffffffffff16036110e2576040517f08c379a00000000000000000000000000000000000000000000000000000000081526004016110d990611d5b565b60405180910390fd5b6110ee600083836114c5565b80600360008282546111009190611897565b9250508190555080600160008473ffffffffffffffffffffffffffffffffffffffff1673ffffffffffffffffffffffffffffffffffffffff16815260200190815260200160002060008282540192505081905550611160600083836114ca565b8173ffffffffffffffffffffffffffffffffffffffff16600073ffffffffffffffffffffffffffffffffffffffff167fddf252ad1be2c89b69c2b068fc378daa952ba7f163c4a11628f55a4df523b3ef836040516111be919061169f565b60405180910390a35050565b600073ffffffffffffffffffffffffffffffffffffffff168273ffffffffffffffffffffffffffffffffffffffff1603611239576040517f08c379a000000000000000000000000000000000000000000000000000000000815260040161123090611ded565b60405180910390fd5b611245826000836114c5565b6000600160008473ffffffffffffffffffffffffffffffffffffffff1673ffffffffffffffffffffffffffffffffffffffff168152602001908152602001600020549050818110156112cc576040517f08c379a00000000000000000000000000000000000000000000000000000000081526004016112c390611e7f565b60405180910390fd5b818103600160008573ffffffffffffffffffffffffffffffffffffffff1673ffffffffffffffffffffffffffffffffffffffff168152602001908152602001600020819055508160036000828254039250508190555061132e600084846114ca565b600073ffffffffffffffffffffffffffffffffffffffff168373ffffffffffffffffffffffffffffffffffffffff167fddf252ad1be2c89b69c2b068fc378daa952ba7f163c4a11628f55a4df523b3ef8460405161138c919061169f565b60405180910390a3505050565b600073ffffffffffffffffffffffffffffffffffffffff168173ffffffffffffffffffffffffffffffffffffffff1603611408576040517f08c379a00000000000000000000000000000000000000000000000000000000081526004016113ff90611f11565b60405180910390fd5b8073ffffffffffffffffffffffffffffffffffffffff1660008054906101000a900473ffffffffffffffffffffffffffffffffffffffff1673ffffffffffffffffffffffffffffffffffffffff167f8be0079c531659141344cd1fd0a4f28419497f9722a3daafe3b4186f6b6457e060405160405180910390a3806000806101000a81548173ffffffffffffffffffffffffffffffffffffffff021916908373ffffffffffffffffffffffffffffffffffffffff16021790555050565b505050565b505050565b600081519050919050565b600082825260208201905092915050565b60005b838110156115095780820151818401526020810190506114ee565b60008484015250505050565b6000601f19601f8301169050919050565b6000611531826114cf565b61153b81856114da565b935061154b8185602086016114eb565b61155481611515565b840191505092915050565b600060208201905081810360008301526115798184611526565b905092915050565b600080fd5b600073ffffffffffffffffffffffffffffffffffffffff82169050919050565b60006115b182611586565b9050919050565b6115c1816115a6565b81146115cc57600080fd5b50565b6000813590506115de816115b8565b92915050565b6000819050919050565b6115f7816115e4565b811461160257600080fd5b50565b600081359050611614816115ee565b92915050565b6000806040838503121561163157611630611581565b5b600061163f858286016115cf565b925050602061165085828601611605565b9150509250929050565b60008115159050919050565b61166f8161165a565b82525050565b600060208201905061168a6000830184611666565b92915050565b611699816115e4565b82525050565b60006020820190506116b46000830184611690565b92915050565b6000806000606084860312156116d3576116d2611581565b5b60006116e1868287016115cf565b93505060206116f2868287016115cf565b925050604061170386828701611605565b9150509250925092565b600060ff82169050919050565b6117238161170d565b82525050565b600060208201905061173e600083018461171a565b92915050565b60006020828403121561175a57611759611581565b5b600061176884828501611605565b91505092915050565b60006020828403121561178757611786611581565b5b6000611795848285016115cf565b91505092915050565b6117a7816115a6565b82525050565b60006020820190506117c2600083018461179e565b92915050565b600080604083850312156117df576117de611581565b5b60006117ed858286016115cf565b92505060206117fe858286016115cf565b9150509250929050565b7f4e487b7100000000000000000000000000000000000000000000000000000000600052602260045260246000fd5b6000600282049050600182168061184f57607f821691505b60208210810361186257611861611808565b5b50919050565b7f4e487b7100000000000000000000000000000000000000000000000000000000600052601160045260246000fd5b60006118a2826115e4565b91506118ad836115e4565b92508282019050808211156118c5576118c4611868565b5b92915050565b7f4f776e61626c653a2063616c6c6572206973206e6f7420746865206f776e6572600082015250565b60006119016020836114da565b915061190c826118cb565b602082019050919050565b60006020820190508181036000830152611930816118f4565b9050919050565b7f42455032303a2064656372656173656420616c6c6f77616e63652062656c6f7760008201527f207a65726f000000000000000000000000000000000000000000000000000000602082015250565b60006119936025836114da565b915061199e82611937565b604082019050919050565b600060208201905081810360008301526119c281611986565b9050919050565b7f42455032303a20617070726f76652066726f6d20746865207a65726f2061646460008201527f7265737300000000000000000000000000000000000000000000000000000000602082015250565b6000611a256024836114da565b9150611a30826119c9565b604082019050919050565b60006020820190508181036000830152611a5481611a18565b9050919050565b7f42455032303a20617070726f766520746f20746865207a65726f20616464726560008201527f7373000000000000000000000000000000000000000000000000000000000000602082015250565b6000611ab76022836114da565b9150611ac282611a5b565b604082019050919050565b60006020820190508181036000830152611ae681611aaa565b9050919050565b7f42455032303a20696e73756666696369656e7420616c6c6f77616e6365000000600082015250565b6000611b23601d836114da565b9150611b2e82611aed565b602082019050919050565b60006020820190508181036000830152611b5281611b16565b9050919050565b7f42455032303a207472616e736665722066726f6d20746865207a65726f20616460008201527f6472657373000000000000000000000000000000000000000000000000000000602082015250565b6000611bb56025836114da565b9150611bc082611b59565b604082019050919050565b60006020820190508181036000830152611be481611ba8565b9050919050565b7f42455032303a207472616e7366657220746f20746865207a65726f206164647260008201527f6573730000000000000000000000000000000000000000000000000000000000602082015250565b6000611c476023836114da565b9150611c5282611beb565b604082019050919050565b60006020820190508181036000830152611c7681611c3a565b9050919050565b7f42455032303a207472616e7366657220616d6f756e742065786365656473206260008201527f616c616e63650000000000000000000000000000000000000000000000000000602082015250565b6000611cd96026836114da565b9150611ce482611c7d565b604082019050919050565b60006020820190508181036000830152611d0881611ccc565b9050919050565b7f42455032303a206d696e7420746f20746865207a65726f206164647265737300600082015250565b6000611d45601f836114da565b9150611d5082611d0f565b602082019050919050565b60006020820190508181036000830152611d7481611d38565b9050919050565b7f42455032303a206275726e2066726f6d20746865207a65726f2061646472657360008201527f7300000000000000000000000000000000000000000000000000000000000000602082015250565b6000611dd76021836114da565b9150611de282611d7b565b604082019050919050565b60006020820190508181036000830152611e0681611dca565b9050919050565b7f42455032303a206275726e20616d6f756e7420657863656564732062616c616e60008201527f6365000000000000000000000000000000000000000000000000000000000000602082015250565b6000611e696022836114da565b9150611e7482611e0d565b604082019050919050565b60006020820190508181036000830152611e9881611e5c565b9050919050565b7f4f776e61626c653a206e6577206f776e657220697320746865207a65726f206160008201527f6464726573730000000000000000000000000000000000000000000000000000602082015250565b6000611efb6026836114da565b9150611f0682611e9f565b604082019050919050565b60006020820190508181036000830152611f2a81611eee565b905091905056fea26469706673582212204dc5a8b2b3d80358895c64e1164ecb85ec3d0604afaf9c7fb7b8a8d5f924e8d064736f6c63430008130033",
  "immutableReferences": {},
  "source": "// SPDX-License-Identifier: MIT\r\n// Implementation OpenZeppelin Contracts (last updated v4.8.0) (token/ERC20/ERC20.sol) for BEP20 standart\r\nimport \"./Context.sol\";\r\nimport \"./IBEP20.sol\";\r\nimport \"./Ownable.sol\";\r\n\r\npragma solidity ^0.8.0;\r\n\r\ncontract BEP20 is Context, IBEP20, Ownable {  \r\n    mapping (address => uint256) private _balances;\r\n\r\n    mapping (address => mapping (address => uint256)) private _allowances;\r\n\r\n    uint256 private _totalSupply;\r\n\r\n    string private _name;\r\n    string private _symbol;\r\n  \r\n    /**\r\n    * @dev Sets the values for {name} and {symbol}.\r\n    *\r\n\r\n\r\n    * All two of these values are immutable: they can only be set once during\r\n    * construction.\r\n    */\r\n    constructor(string memory name_, string memory symbol_) {\r\n        _name = name_;\r\n        _symbol = symbol_;\r\n    }\r\n\r\n    /**\r\n    * @dev Returns the bep token owner.\r\n    */\r\n    function getOwner() public view virtual override returns (address) {\r\n        return owner();\r\n    }\r\n\r\n    /**\r\n    * @dev Returns the number of decimals used to get its user representation.\r\n    * For example, if `decimals` equals `2`, a balance of `505` tokens should\r\n    * be displayed to a user as `5.05` (`505 / 10 ** 2`).\r\n    *\r\n    * Tokens usually opt for a value of 18, imitating the relationship between\r\n    * Ether and Wei. This is the default value returned by this function, unless\r\n    * it's overridden.\r\n    *\r\n    * NOTE: This information is only used for _display_ purposes: it in\r\n    * no way affects any of the arithmetic of the contract, including\r\n    * {BEP20-balanceOf} and {BEP20-transfer}.\r\n    */\r\n    function decimals() public view virtual override returns (uint8) {\r\n        return 18;\r\n    }\r\n\r\n    /**\r\n    * @dev Returns the token symbol.\r\n    */\r\n    function symbol() public view virtual override returns (string memory) {\r\n        return _symbol;\r\n    }\r\n\r\n    /**\r\n    * @dev Returns the token name.\r\n    */\r\n    function name() public view virtual override returns (string memory) {\r\n        return _name;\r\n    }\r\n\r\n    /**\r\n    * @dev See {BEP20-totalSupply}.\r\n    */\r\n    function totalSupply() public view virtual override returns (uint256) {\r\n        return _totalSupply;\r\n    }\r\n\r\n    /**\r\n    * @dev See {BEP20-balanceOf}.\r\n    */\r\n    function balanceOf(address account) public view virtual override returns (uint256) {\r\n        return _balances[account];\r\n    }\r\n\r\n    /**\r\n    * @dev See {BEP20-transfer}.\r\n    *\r\n    * Requirements:\r\n    *\r\n    * - `recipient` cannot be the zero address.\r\n    * - the caller must have a balance of at least `amount`.\r\n    */\r\n    function transfer(address recipient, uint256 amount) external virtual override returns (bool) {\r\n        _transfer(_msgSender(), recipient, amount);\r\n        return true;\r\n    }\r\n\r\n    /**\r\n    * @dev See {BEP20-allowance}.\r\n    */\r\n    function allowance(address owner, address spender) public view virtual override returns (uint256) {\r\n        return _allowances[owner][spender];\r\n    }\r\n\r\n    /**\r\n    * @dev See {BEP20-approve}.\r\n    *\r\n    * Requirements:\r\n    *\r\n    * - `spender` cannot be the zero address.\r\n    */\r\n    function approve(address spender, uint256 amount) public virtual override returns (bool) {\r\n        _approve(_msgSender(), spender, amount);\r\n        return true;\r\n    }\r\n\r\n    /**\r\n    * @dev See {BEP20-transferFrom}.\r\n    *\r\n    * Emits an {Approval} event indicating the updated allowance. This is not\r\n    * required by the EIP. See the note at the beginning of {BEP20};\r\n    *\r\n    * Requirements:\r\n    * - `sender` and `recipient` cannot be the zero address.\r\n    * - `sender` must have a balance of at least `amount`.\r\n    * - the caller must have allowance for `sender`'s tokens of at least\r\n    * `amount`.\r\n    */\r\n    function transferFrom(address from, address to, uint256 amount) public virtual override returns (bool) {\r\n        address spender = _msgSender();\r\n        _spendAllowance(from, spender, amount);\r\n        _transfer(from, to, amount);\r\n        return true;\r\n    }\r\n\r\n    /**\r\n     * @dev Atomically increases the allowance granted to `spender` by the caller.\r\n     *\r\n     * This is an alternative to {approve} that can be used as a mitigation for\r\n     * problems described in {BEP20-approve}.\r\n     *\r\n     * Emits an {Approval} event indicating the updated allowance.\r\n     *\r\n     * Requirements:\r\n     *\r\n     * - `spender` cannot be the zero address.\r\n     */\r\n    function increaseAllowance(address spender, uint256 addedValue) external returns (bool) {\r\n        _approve(_msgSender(), spender, _allowances[_msgSender()][spender] + addedValue);\r\n        return true;\r\n    }\r\n\r\n    /**\r\n     * @dev Atomically decreases the allowance granted to `spender` by the caller.\r\n     *\r\n     * This is an alternative to {approve} that can be used as a mitigation for\r\n     * problems described in {BEP20-approve}.\r\n     *\r\n     * Emits an {Approval} event indicating the updated allowance.\r\n     *\r\n     * Requirements:\r\n     *\r\n     * - `spender` cannot be the zero address.\r\n     * - `spender` must have allowance for the caller of at least\r\n     * `subtractedValue`.\r\n     */\r\n    function decreaseAllowance(address spender, uint256 subtractedValue) external returns (bool) {\r\n        address owner = _msgSender();\r\n\r\n        uint256 currentAllowance = allowance(owner, spender);\r\n        require(currentAllowance >= subtractedValue, \"BEP20: decreased allowance below zero\");\r\n        unchecked {\r\n            _approve(owner, spender, currentAllowance - subtractedValue);\r\n        }\r\n\r\n        return true;\r\n    }\r\n\r\n    /**\r\n     * @dev Creates `amount` tokens and assigns them to `account`, increasing\r\n     * the total supply.\r\n     *\r\n     * Requirements\r\n     *\r\n     * - `msg.sender` must be the token owner\r\n     * - Example using: multichain brigde\r\n     */\r\n    function mint(address account, uint256 amount) public onlyOwner returns (bool) {\r\n        _mint(account, amount);\r\n        return true;\r\n    }\r\n\r\n    /**\r\n     * @dev Remove `amount` tokens and assigns them to `msg.sender`, increasing\r\n     * the total supply.\r\n     *\r\n     * Requirements\r\n     *\r\n     * - `msg.sender` must be the token owner\r\n     */\r\n    function burn(uint256 amount) public onlyOwner returns (bool) {\r\n        _burn(_msgSender(), amount);\r\n        return true;\r\n    }\r\n\r\n    function burnFrom(address account, uint256 amount) public onlyOwner returns (bool) {\r\n        _burn(account, amount);\r\n        return true;\r\n    }\r\n\r\n    /**\r\n     * @dev Moves `amount` of tokens from `from` to `to`.\r\n     *\r\n     * This internal function is equivalent to {transfer}, and can be used to\r\n     * e.g. implement automatic token fees, slashing mechanisms, etc.\r\n     *\r\n     * Emits a {Transfer} event.\r\n     *\r\n     * Requirements:\r\n     *\r\n     * - `from` cannot be the zero address.\r\n     * - `to` cannot be the zero address.\r\n     * - `from` must have a balance of at least `amount`.\r\n     */\r\n    function _transfer(address from, address to, uint256 amount) internal virtual {\r\n        require(from != address(0), \"BEP20: transfer from the zero address\");\r\n        require(to != address(0), \"BEP20: transfer to the zero address\");\r\n\r\n        _beforeTokenTransfer(from, to, amount);\r\n\r\n        uint256 fromBalance = _balances[from];\r\n        require(fromBalance >= amount, \"BEP20: transfer amount exceeds balance\");\r\n        unchecked {\r\n            _balances[from] = fromBalance - amount;\r\n            // Overflow not possible: the sum of all balances is capped by totalSupply, and the sum is preserved by\r\n            // decrementing then incrementing.\r\n            _balances[to] += amount;\r\n        }\r\n\r\n        _afterTokenTransfer(from, to, amount);\r\n\r\n        emit Transfer(from, to, amount);\r\n    }\r\n\r\n    /** @dev Creates `amount` tokens and assigns them to `account`, increasing\r\n     * the total supply.\r\n     *\r\n     * Emits a {Transfer} event with `from` set to the zero address.\r\n     *\r\n     * Requirements\r\n     *\r\n     * - `to` cannot be the zero address.\r\n     */\r\n    function _mint(address account, uint256 amount) internal virtual {\r\n        require(account != address(0), \"BEP20: mint to the zero address\");\r\n\r\n        _beforeTokenTransfer(address(0), account, amount);\r\n\r\n        _totalSupply += amount;\r\n        unchecked {\r\n            // Overflow not possible: balance + amount is at most totalSupply + amount, which is checked above.\r\n            _balances[account] += amount;\r\n        }\r\n\r\n        _afterTokenTransfer(address(0), account, amount);\r\n\r\n        emit Transfer(address(0), account, amount);\r\n    }\r\n\r\n    /**\r\n     * @dev Destroys `amount` tokens from `account`, reducing the\r\n     * total supply.\r\n     *\r\n     * Emits a {Transfer} event with `to` set to the zero address.\r\n     *\r\n     * Requirements\r\n     *\r\n     * - `account` cannot be the zero address.\r\n     * - `account` must have at least `amount` tokens.\r\n     */\r\n    function _burn(address account, uint256 amount) internal virtual {\r\n        require(account != address(0), \"BEP20: burn from the zero address\");\r\n\r\n        _beforeTokenTransfer(account, address(0), amount);\r\n\r\n        uint256 accountBalance = _balances[account];\r\n        require(accountBalance >= amount, \"BEP20: burn amount exceeds balance\");\r\n        unchecked {\r\n            _balances[account] = accountBalance - amount;\r\n            // Overflow not possible: amount <= accountBalance <= totalSupply.\r\n            _totalSupply -= amount;\r\n        }\r\n\r\n        _afterTokenTransfer(address(0), account, amount);\r\n\r\n        emit Transfer(account, address(0), amount);\r\n    }\r\n\r\n    /**\r\n     * @dev Sets `amount` as the allowance of `spender` over the `owner`s tokens.\r\n     *\r\n     * This is internal function is equivalent to `approve`, and can be used to\r\n     * e.g. set automatic allowances for certain subsystems, etc.\r\n     *\r\n     * Emits an {Approval} event.\r\n     *\r\n     * Requirements:\r\n     *\r\n     * - `owner` cannot be the zero address.\r\n     * - `spender` cannot be the zero address.\r\n     */\r\n    function _approve(address owner, address spender, uint256 amount) internal virtual {\r\n        require(owner != address(0), \"BEP20: approve from the zero address\");\r\n        require(spender != address(0), \"BEP20: approve to the zero address\");\r\n\r\n        _allowances[owner][spender] = amount;\r\n        emit Approval(owner, spender, amount);\r\n    }\r\n\r\n    /**\r\n     * @dev Updates `owner` s allowance for `spender` based on spent `amount`.\r\n     *\r\n     * Does not update the allowance amount in case of infinite allowance.\r\n     * Revert if not enough allowance is available.\r\n     *\r\n     * Might emit an {Approval} event.\r\n     */\r\n    function _spendAllowance(address owner, address spender, uint256 amount) internal virtual {\r\n        uint256 currentAllowance = allowance(owner, spender);\r\n        if (currentAllowance != type(uint256).max) {\r\n            require(currentAllowance >= amount, \"BEP20: insufficient allowance\");\r\n            unchecked {\r\n                _approve(owner, spender, currentAllowance - amount);\r\n            }\r\n        }\r\n    }\r\n\r\n    /**\r\n    * @dev Destroys `amount` tokens from `account`.`amount` is then deducted\r\n    * from the caller's allowance.\r\n    *\r\n    * See {_burn} and {_approve}.\r\n    */\r\n    function _burnFrom(address account, uint256 amount) internal virtual {\r\n        _burn(account, amount);\r\n        _approve(account, _msgSender(), _allowances[account][_msgSender()] - amount);\r\n    }\r\n\r\n    /**\r\n     * @dev Hook that is called before any transfer of tokens. This includes\r\n     * minting and burning.\r\n     *\r\n     * Calling conditions:\r\n     *\r\n     * - when `from` and `to` are both non-zero, `amount` of ``from``'s tokens\r\n     * will be transferred to `to`.\r\n     * - when `from` is zero, `amount` tokens will be minted for `to`.\r\n     * - when `to` is zero, `amount` of ``from``'s tokens will be burned.\r\n     * - `from` and `to` are never both zero.\r\n     *\r\n     * To learn more about hooks, head to xref:ROOT:extending-contracts.adoc#using-hooks[Using Hooks].\r\n     */\r\n    function _beforeTokenTransfer(address from, address to, uint256 amount) internal virtual {}\r\n\r\n    /**\r\n     * @dev Hook that is called after any transfer of tokens. This includes\r\n     * minting and burning.\r\n     *\r\n     * Calling conditions:\r\n     *\r\n     * - when `from` and `to` are both non-zero, `amount` of ``from``'s tokens\r\n     * has been transferred to `to`.\r\n     * - when `from` is zero, `amount` tokens have been minted for `to`.\r\n     * - when `to` is zero, `amount` of ``from``'s tokens have been burned.\r\n     * - `from` and `to` are never both zero.\r\n     *\r\n     * To learn more about hooks, head to xref:ROOT:extending-contracts.adoc#using-hooks[Using Hooks].\r\n     */\r\n    function _afterTokenTransfer(address from, address to, uint256 amount) internal virtual {}\r\n}",
  "sourcePath": "C:\\Users\\Kirill\\Desktop\\truf\\truf\\contracts\\BEP20.sol",
  "compiler": {
    "name": "solc",
    "version": "0.8.19+commit.7dd6d404.Emscripten.clang"
  },
  "schemaVersion": "3.4.13",
  "updatedAt": "2023-04-01T13:53:07.807Z",
  "devdoc": {
    "events": {
      "Approval(address,address,uint256)": {
        "details": "Emitted when the allowance of a `spender` for an `owner` is set by a call to {approve}. `value` is the new allowance."
      },
      "Transfer(address,address,uint256)": {
        "details": "Emitted when `value` tokens are moved from one account (`from`) to another (`to`). Note that `value` may be zero."
      }
    },
    "kind": "dev",
    "methods": {
      "allowance(address,address)": {
        "details": "See {BEP20-allowance}."
      },
      "approve(address,uint256)": {
        "details": "See {BEP20-approve}. Requirements: - `spender` cannot be the zero address."
      },
      "balanceOf(address)": {
        "details": "See {BEP20-balanceOf}."
      },
      "burn(uint256)": {
        "details": "Remove `amount` tokens and assigns them to `msg.sender`, increasing the total supply. Requirements - `msg.sender` must be the token owner"
      },
      "constructor": {
        "details": "Sets the values for {name} and {symbol}. All two of these values are immutable: they can only be set once during construction."
      },
      "decimals()": {
        "details": "Returns the number of decimals used to get its user representation. For example, if `decimals` equals `2`, a balance of `505` tokens should be displayed to a user as `5.05` (`505 / 10 ** 2`). Tokens usually opt for a value of 18, imitating the relationship between Ether and Wei. This is the default value returned by this function, unless it's overridden. NOTE: This information is only used for _display_ purposes: it in no way affects any of the arithmetic of the contract, including {BEP20-balanceOf} and {BEP20-transfer}."
      },
      "decreaseAllowance(address,uint256)": {
        "details": "Atomically decreases the allowance granted to `spender` by the caller. This is an alternative to {approve} that can be used as a mitigation for problems described in {BEP20-approve}. Emits an {Approval} event indicating the updated allowance. Requirements: - `spender` cannot be the zero address. - `spender` must have allowance for the caller of at least `subtractedValue`."
      },
      "getOwner()": {
        "details": "Returns the bep token owner."
      },
      "increaseAllowance(address,uint256)": {
        "details": "Atomically increases the allowance granted to `spender` by the caller. This is an alternative to {approve} that can be used as a mitigation for problems described in {BEP20-approve}. Emits an {Approval} event indicating the updated allowance. Requirements: - `spender` cannot be the zero address."
      },
      "mint(address,uint256)": {
        "details": "Creates `amount` tokens and assigns them to `account`, increasing the total supply. Requirements - `msg.sender` must be the token owner - Example using: multichain brigde"
      },
      "name()": {
        "details": "Returns the token name."
      },
      "owner()": {
        "details": "Returns the address of the current owner."
      },
      "renounceOwnership()": {
        "details": "Leaves the contract without owner. It will not be possible to call `onlyOwner` functions anymore. Can only be called by the current owner. NOTE: Renouncing ownership will leave the contract without an owner, thereby removing any functionality that is only available to the owner."
      },
      "symbol()": {
        "details": "Returns the token symbol."
      },
      "totalSupply()": {
        "details": "See {BEP20-totalSupply}."
      },
      "transfer(address,uint256)": {
        "details": "See {BEP20-transfer}. Requirements: - `recipient` cannot be the zero address. - the caller must have a balance of at least `amount`."
      },
      "transferFrom(address,address,uint256)": {
        "details": "See {BEP20-transferFrom}. Emits an {Approval} event indicating the updated allowance. This is not required by the EIP. See the note at the beginning of {BEP20}; Requirements: - `sender` and `recipient` cannot be the zero address. - `sender` must have a balance of at least `amount`. - the caller must have allowance for `sender`'s tokens of at least `amount`."
      },
      "transferOwnership(address)": {
        "details": "Transfers ownership of the contract to a new account (`newOwner`). Can only be called by the current owner."
      }
    },
    "version": 1
  },
  "userdoc": {
    "kind": "user",
    "methods": {},
    "version": 1
  }
}