{
  "contractName": "Ownable",
  "abi": [
    {
      "inputs": [],
      "stateMutability": "nonpayable",
      "type": "constructor"
    },
    {
      "anonymous": false,
      "inputs": [
        {
          "indexed": true,
          "internalType": "address",
          "name": "previousOwner",
          "type": "address"
        },
        {
          "indexed": true,
          "internalType": "address",
          "name": "newOwner",
          "type": "address"
        }
      ],
      "name": "OwnershipTransferred",
      "type": "event"
    },
    {
      "inputs": [],
      "name": "owner",
      "outputs": [
        {
          "internalType": "address",
          "name": "",
          "type": "address"
        }
      ],
      "stateMutability": "view",
      "type": "function"
    },
    {
      "inputs": [],
      "name": "renounceOwnership",
      "outputs": [],
      "stateMutability": "nonpayable",
      "type": "function"
    },
    {
      "inputs": [
        {
          "internalType": "address",
          "name": "newOwner",
          "type": "address"
        }
      ],
      "name": "transferOwnership",
      "outputs": [],
      "stateMutability": "nonpayable",
      "type": "function"
    }
  ],
  "bytecode": "0x608060405234801561001057600080fd5b5060006100216100c460201b60201c565b9050806000806101000a81548173ffffffffffffffffffffffffffffffffffffffff021916908373ffffffffffffffffffffffffffffffffffffffff1602179055508073ffffffffffffffffffffffffffffffffffffffff16600073ffffffffffffffffffffffffffffffffffffffff167f8be0079c531659141344cd1fd0a4f28419497f9722a3daafe3b4186f6b6457e060405160405180910390a3506100cc565b600033905090565b6105da806100db6000396000f3fe608060405234801561001057600080fd5b50600436106100415760003560e01c8063715018a6146100465780638da5cb5b14610050578063f2fde38b1461006e575b600080fd5b61004e61008a565b005b6100586101dd565b604051610065919061041c565b60405180910390f35b61008860048036038101906100839190610468565b610206565b005b6100926102a7565b73ffffffffffffffffffffffffffffffffffffffff1660008054906101000a900473ffffffffffffffffffffffffffffffffffffffff1673ffffffffffffffffffffffffffffffffffffffff161461011f576040517f08c379a0000000000000000000000000000000000000000000000000000000008152600401610116906104f2565b60405180910390fd5b600073ffffffffffffffffffffffffffffffffffffffff1660008054906101000a900473ffffffffffffffffffffffffffffffffffffffff1673ffffffffffffffffffffffffffffffffffffffff167f8be0079c531659141344cd1fd0a4f28419497f9722a3daafe3b4186f6b6457e060405160405180910390a360008060006101000a81548173ffffffffffffffffffffffffffffffffffffffff021916908373ffffffffffffffffffffffffffffffffffffffff160217905550565b60008060009054906101000a900473ffffffffffffffffffffffffffffffffffffffff16905090565b61020e6102a7565b73ffffffffffffffffffffffffffffffffffffffff1660008054906101000a900473ffffffffffffffffffffffffffffffffffffffff1673ffffffffffffffffffffffffffffffffffffffff161461029b576040517f08c379a0000000000000000000000000000000000000000000000000000000008152600401610292906104f2565b60405180910390fd5b6102a4816102af565b50565b600033905090565b600073ffffffffffffffffffffffffffffffffffffffff168173ffffffffffffffffffffffffffffffffffffffff160361031e576040517f08c379a000000000000000000000000000000000000000000000000000000000815260040161031590610584565b60405180910390fd5b8073ffffffffffffffffffffffffffffffffffffffff1660008054906101000a900473ffffffffffffffffffffffffffffffffffffffff1673ffffffffffffffffffffffffffffffffffffffff167f8be0079c531659141344cd1fd0a4f28419497f9722a3daafe3b4186f6b6457e060405160405180910390a3806000806101000a81548173ffffffffffffffffffffffffffffffffffffffff021916908373ffffffffffffffffffffffffffffffffffffffff16021790555050565b600073ffffffffffffffffffffffffffffffffffffffff82169050919050565b6000610406826103db565b9050919050565b610416816103fb565b82525050565b6000602082019050610431600083018461040d565b92915050565b600080fd5b610445816103fb565b811461045057600080fd5b50565b6000813590506104628161043c565b92915050565b60006020828403121561047e5761047d610437565b5b600061048c84828501610453565b91505092915050565b600082825260208201905092915050565b7f4f776e61626c653a2063616c6c6572206973206e6f7420746865206f776e6572600082015250565b60006104dc602083610495565b91506104e7826104a6565b602082019050919050565b6000602082019050818103600083015261050b816104cf565b9050919050565b7f4f776e61626c653a206e6577206f776e657220697320746865207a65726f206160008201527f6464726573730000000000000000000000000000000000000000000000000000602082015250565b600061056e602683610495565b915061057982610512565b604082019050919050565b6000602082019050818103600083015261059d81610561565b905091905056fea264697066735822122052024f185661fdf3135c125421ba2493c75affc978657eeeb1e8c9d9a2e0911f64736f6c63430008130033",
  "immutableReferences": {},
  "source": "// SPDX-License-Identifier: MIT\r\n// Implementation OpenZeppelin Contracts (last updated v4.7.0) (access/Ownable.sol) for BEP20 standart\r\npragma solidity ^0.8.0;\r\n\r\nimport \"./Context.sol\";\r\n\r\ncontract Ownable is Context {\r\n  address private _owner;\r\n\r\n  event OwnershipTransferred(address indexed previousOwner, address indexed newOwner);\r\n\r\n  /**\r\n   * @dev Initializes the contract setting the deployer as the initial owner.\r\n   */\r\n  constructor ()  {\r\n    address msgSender = _msgSender();\r\n    _owner = msgSender;\r\n    emit OwnershipTransferred(address(0), msgSender);\r\n  }\r\n\r\n  /**\r\n   * @dev Returns the address of the current owner.\r\n   */\r\n  function owner() public view returns (address) {\r\n    return _owner;\r\n  }\r\n\r\n  /**\r\n   * @dev Throws if called by any account other than the owner.\r\n   */\r\n  modifier onlyOwner() {\r\n    require(_owner == _msgSender(), \"Ownable: caller is not the owner\");\r\n    _;\r\n  }\r\n\r\n  /**\r\n   * @dev Leaves the contract without owner. It will not be possible to call\r\n   * `onlyOwner` functions anymore. Can only be called by the current owner.\r\n   *\r\n   * NOTE: Renouncing ownership will leave the contract without an owner,\r\n   * thereby removing any functionality that is only available to the owner.\r\n   */\r\n  function renounceOwnership() public onlyOwner {\r\n    emit OwnershipTransferred(_owner, address(0));\r\n    _owner = address(0);\r\n  }\r\n\r\n  /**\r\n   * @dev Transfers ownership of the contract to a new account (`newOwner`).\r\n   * Can only be called by the current owner.\r\n   */\r\n  function transferOwnership(address newOwner) public onlyOwner {\r\n    _transferOwnership(newOwner);\r\n  }\r\n\r\n  /**\r\n   * @dev Transfers ownership of the contract to a new account (`newOwner`).\r\n   */\r\n  function _transferOwnership(address newOwner) internal {\r\n    require(newOwner != address(0), \"Ownable: new owner is the zero address\");\r\n    emit OwnershipTransferred(_owner, newOwner);\r\n    _owner = newOwner;\r\n  }\r\n}",
  "sourcePath": "C:\\Users\\Kirill\\Desktop\\truf\\truf\\contracts\\Ownable.sol",
  "compiler": {
    "name": "solc",
    "version": "0.8.19+commit.7dd6d404.Emscripten.clang"
  },
  "schemaVersion": "3.4.13",
  "updatedAt": "2023-04-01T13:53:07.819Z",
  "devdoc": {
    "kind": "dev",
    "methods": {
      "constructor": {
        "details": "Initializes the contract setting the deployer as the initial owner."
      },
      "owner()": {
        "details": "Returns the address of the current owner."
      },
      "renounceOwnership()": {
        "details": "Leaves the contract without owner. It will not be possible to call `onlyOwner` functions anymore. Can only be called by the current owner. NOTE: Renouncing ownership will leave the contract without an owner, thereby removing any functionality that is only available to the owner."
      },
      "transferOwnership(address)": {
        "details": "Transfers ownership of the contract to a new account (`newOwner`). Can only be called by the current owner."
      }
    },
    "version": 1
  },
  "userdoc": {
    "kind": "user",
    "methods": {},
    "version": 1
  }
}